{
  "contractName": "Gatekeeper",
  "abi": [
    {
      "constant": true,
      "inputs": [],
      "name": "owner",
      "outputs": [
        {
          "name": "",
          "type": "address"
        }
      ],
      "payable": false,
      "stateMutability": "view",
      "type": "function"
    },
    {
      "constant": true,
      "inputs": [
        {
          "name": "",
          "type": "bytes32"
        }
      ],
      "name": "paid",
      "outputs": [
        {
          "name": "",
          "type": "bool"
        }
      ],
      "payable": false,
      "stateMutability": "view",
      "type": "function"
    },
    {
      "constant": true,
      "inputs": [],
      "name": "transactionAmount",
      "outputs": [
        {
          "name": "",
          "type": "uint256"
        }
      ],
      "payable": false,
      "stateMutability": "view",
      "type": "function"
    },
    {
      "constant": false,
      "inputs": [
        {
          "name": "newOwner",
          "type": "address"
        }
      ],
      "name": "transferOwnership",
      "outputs": [],
      "payable": false,
      "stateMutability": "nonpayable",
      "type": "function"
    },
    {
      "inputs": [
        {
          "name": "_token",
          "type": "address"
        }
      ],
      "payable": false,
      "stateMutability": "nonpayable",
      "type": "constructor"
    },
    {
      "anonymous": false,
      "inputs": [
        {
          "indexed": true,
          "name": "from",
          "type": "address"
        },
        {
          "indexed": true,
          "name": "txNumber",
          "type": "uint256"
        },
        {
          "indexed": true,
          "name": "value",
          "type": "uint256"
        }
      ],
      "name": "PayInTrx",
      "type": "event"
    },
    {
      "anonymous": false,
      "inputs": [
        {
          "indexed": true,
          "name": "from",
          "type": "address"
        },
        {
          "indexed": true,
          "name": "txNumber",
          "type": "uint256"
        },
        {
          "indexed": true,
          "name": "value",
          "type": "uint256"
        }
      ],
      "name": "PayOut",
      "type": "event"
    },
    {
      "anonymous": false,
      "inputs": [
        {
          "indexed": false,
          "name": "block",
          "type": "uint256"
        }
      ],
      "name": "Suicide",
      "type": "event"
    },
    {
      "anonymous": false,
      "inputs": [
        {
          "indexed": true,
          "name": "previousOwner",
          "type": "address"
        },
        {
          "indexed": true,
          "name": "newOwner",
          "type": "address"
        }
      ],
      "name": "OwnershipTransferred",
      "type": "event"
    },
    {
      "constant": false,
      "inputs": [
        {
          "name": "_value",
          "type": "uint256"
        }
      ],
      "name": "PayIn",
      "outputs": [],
      "payable": false,
      "stateMutability": "nonpayable",
      "type": "function"
    },
    {
      "constant": false,
      "inputs": [
        {
          "name": "_to",
          "type": "address"
        },
        {
          "name": "_value",
          "type": "uint256"
        },
        {
          "name": "_txNumber",
          "type": "uint256"
        }
      ],
      "name": "Payout",
      "outputs": [],
      "payable": false,
      "stateMutability": "nonpayable",
      "type": "function"
    },
    {
      "constant": false,
      "inputs": [],
      "name": "kill",
      "outputs": [],
      "payable": false,
      "stateMutability": "nonpayable",
      "type": "function"
    }
  ],
  "bytecode": "0x60606040526000600255341561001457600080fd5b604051602080610613833981016040528080516000805460018054600160a060020a03948516600160a060020a03199182161790915533939093169083168117909216909117905550506105a68061006d6000396000f3006060604052600436106100695763ffffffff60e060020a60003504166341c0e1b5811461006e578063634235fc146100835780638da5cb5b146100a85780639fab56ac146100d7578063add89bb2146100ed578063d942bffa14610117578063f2fde38b1461013c575b600080fd5b341561007957600080fd5b61008161015b565b005b341561008e57600080fd5b610081600160a060020a03600435166024356044356102a0565b34156100b357600080fd5b6100bb6103ea565b604051600160a060020a03909116815260200160405180910390f35b34156100e257600080fd5b6100816004356103f9565b34156100f857600080fd5b6101036004356104c4565b604051901515815260200160405180910390f35b341561012257600080fd5b61012a6104d9565b60405190815260200160405180910390f35b341561014757600080fd5b610081600160a060020a03600435166104df565b6000805433600160a060020a0390811691161461017757600080fd5b600154600160a060020a03166370a082313060405160e060020a63ffffffff8416028152600160a060020a039091166004820152602401602060405180830381600087803b15156101c757600080fd5b5af115156101d457600080fd5b5050506040518051600154600054919350600160a060020a03908116925063a9059cbb91168360405160e060020a63ffffffff8516028152600160a060020a0390921660048301526024820152604401602060405180830381600087803b151561023d57600080fd5b5af1151561024a57600080fd5b50505060405180519050151561025f57600080fd5b7fa1ea9b09ea114021983e9ecf71cf2ffddfd80f5cb4f925e5bf24f9bdb5e55fde4260405190815260200160405180910390a1600054600160a060020a0316ff5b6000805433600160a060020a039081169116146102bc57600080fd5b838284604051600160a060020a03939093166c010000000000000000000000000283526014830191909152603482015260540160405190819003902060008181526003602052604090205490915060ff161561031757600080fd5b600154600160a060020a031663a9059cbb858560405160e060020a63ffffffff8516028152600160a060020a0390921660048301526024820152604401602060405180830381600087803b151561036d57600080fd5b5af1151561037a57600080fd5b50505060405180519050151561038f57600080fd5b60008181526003602052604090819020805460ff1916600117905583908390600160a060020a038716907fafe5bde68f2dccddb6979d04a1dceb6099fe0ceda6bfc2c37e3a40ed8195d90f905160405180910390a450505050565b600054600160a060020a031681565b600154600160a060020a03166323b872dd33308460405160e060020a63ffffffff8616028152600160a060020a0393841660048201529190921660248201526044810191909152606401602060405180830381600087803b151561045c57600080fd5b5af1151561046957600080fd5b50505060405180519050151561047e57600080fd5b60028054600101908190558190600160a060020a0330167f5bdf8f42703e019ab5248b71701aac7fc28b9c4d232dc684e53cbf1eb503ae3760405160405180910390a450565b60036020526000908152604090205460ff1681565b60025481565b60005433600160a060020a039081169116146104fa57600080fd5b600160a060020a038116151561050f57600080fd5b600054600160a060020a0380831691167f8be0079c531659141344cd1fd0a4f28419497f9722a3daafe3b4186f6b6457e060405160405180910390a36000805473ffffffffffffffffffffffffffffffffffffffff1916600160a060020a03929092169190911790555600a165627a7a72305820ea90ecaa6f443abb5f064c00a7e77533447ab7a590c62b95358afeaaacbd0f920029",
  "source": "pragma solidity ^0.4.21;\n\n\nimport \"zeppelin-solidity/contracts/token/ERC20/StandardToken.sol\";\nimport \"./SNMLToken.sol\";\nimport \"zeppelin-solidity/contracts/ownership/Ownable.sol\";\n\n\ncontract Gatekeeper is Ownable {\n\n    using SafeMath for uint256;\n\n    SNMLToken token;\n\n    function Gatekeeper(address _token) public {\n        token = SNMLToken(_token);\n        owner = msg.sender;\n    }\n\n    uint256 public transactionAmount = 0;\n    mapping(bytes32 => bool) public paid;\n\n    event PayInTrx(address indexed from, uint256 indexed txNumber, uint256 indexed value);\n    event PayOut(address indexed from, uint256 indexed txNumber, uint256 indexed value);\n    event Suicide(uint block);\n\n    function PayIn(uint256 _value) public {\n        require(token.transferFrom(msg.sender, this, _value));\n        transactionAmount = transactionAmount + 1;\n        PayInTrx(this, transactionAmount, _value);\n    }\n\n    function Payout(address _to, uint256 _value, uint256 _txNumber) public onlyOwner{\n        bytes32 txHash = keccak256(_to, _txNumber, _value);\n        require(!paid[txHash]);\n        require(token.transfer(_to, _value));\n        paid[txHash] = true;\n        PayOut(_to, _txNumber, _value);\n    }\n\n    function kill() public onlyOwner{\n        uint balance = token.balanceOf(this);\n        require(token.transfer(owner, balance));\n        Suicide(block.timestamp);\n        selfdestruct(owner);\n    }\n\n}\n",
  "sourcePath": "/Users/anton/go/src/github.com/sonm-io/simple-gate/contracts/Gatekeeper.sol",
  "compiler": {
    "name": "solc",
    "version": "0.4.21+commit.dfe3193c.Emscripten.clang"
  },
  "schemaVersion": "2.0.0",
  "updatedAt": "2018-04-22T12:08:24.462Z"
}