{
  "contractName": "SNMLToken",
  "abi": [
    {
      "constant": true,
      "inputs": [],
      "name": "name",
      "outputs": [
        {
          "name": "",
          "type": "string"
        }
      ],
      "payable": false,
      "stateMutability": "view",
      "type": "function"
    },
    {
      "constant": false,
      "inputs": [
        {
          "name": "_spender",
          "type": "address"
        },
        {
          "name": "_value",
          "type": "uint256"
        }
      ],
      "name": "approve",
      "outputs": [
        {
          "name": "",
          "type": "bool"
        }
      ],
      "payable": false,
      "stateMutability": "nonpayable",
      "type": "function"
    },
    {
      "constant": true,
      "inputs": [],
      "name": "totalSupply",
      "outputs": [
        {
          "name": "",
          "type": "uint256"
        }
      ],
      "payable": false,
      "stateMutability": "view",
      "type": "function"
    },
    {
      "constant": false,
      "inputs": [
        {
          "name": "_from",
          "type": "address"
        },
        {
          "name": "_to",
          "type": "address"
        },
        {
          "name": "_value",
          "type": "uint256"
        }
      ],
      "name": "transferFrom",
      "outputs": [
        {
          "name": "",
          "type": "bool"
        }
      ],
      "payable": false,
      "stateMutability": "nonpayable",
      "type": "function"
    },
    {
      "constant": true,
      "inputs": [],
      "name": "decimals",
      "outputs": [
        {
          "name": "",
          "type": "uint256"
        }
      ],
      "payable": false,
      "stateMutability": "view",
      "type": "function"
    },
    {
      "constant": false,
      "inputs": [
        {
          "name": "_spender",
          "type": "address"
        },
        {
          "name": "_subtractedValue",
          "type": "uint256"
        }
      ],
      "name": "decreaseApproval",
      "outputs": [
        {
          "name": "",
          "type": "bool"
        }
      ],
      "payable": false,
      "stateMutability": "nonpayable",
      "type": "function"
    },
    {
      "constant": true,
      "inputs": [
        {
          "name": "_owner",
          "type": "address"
        }
      ],
      "name": "balanceOf",
      "outputs": [
        {
          "name": "balance",
          "type": "uint256"
        }
      ],
      "payable": false,
      "stateMutability": "view",
      "type": "function"
    },
    {
      "constant": true,
      "inputs": [],
      "name": "owner",
      "outputs": [
        {
          "name": "",
          "type": "address"
        }
      ],
      "payable": false,
      "stateMutability": "view",
      "type": "function"
    },
    {
      "constant": true,
      "inputs": [],
      "name": "symbol",
      "outputs": [
        {
          "name": "",
          "type": "string"
        }
      ],
      "payable": false,
      "stateMutability": "view",
      "type": "function"
    },
    {
      "constant": false,
      "inputs": [
        {
          "name": "_to",
          "type": "address"
        },
        {
          "name": "_value",
          "type": "uint256"
        }
      ],
      "name": "transfer",
      "outputs": [
        {
          "name": "",
          "type": "bool"
        }
      ],
      "payable": false,
      "stateMutability": "nonpayable",
      "type": "function"
    },
    {
      "constant": false,
      "inputs": [
        {
          "name": "_spender",
          "type": "address"
        },
        {
          "name": "_addedValue",
          "type": "uint256"
        }
      ],
      "name": "increaseApproval",
      "outputs": [
        {
          "name": "",
          "type": "bool"
        }
      ],
      "payable": false,
      "stateMutability": "nonpayable",
      "type": "function"
    },
    {
      "constant": true,
      "inputs": [
        {
          "name": "_owner",
          "type": "address"
        },
        {
          "name": "_spender",
          "type": "address"
        }
      ],
      "name": "allowance",
      "outputs": [
        {
          "name": "",
          "type": "uint256"
        }
      ],
      "payable": false,
      "stateMutability": "view",
      "type": "function"
    },
    {
      "constant": false,
      "inputs": [
        {
          "name": "newOwner",
          "type": "address"
        }
      ],
      "name": "transferOwnership",
      "outputs": [],
      "payable": false,
      "stateMutability": "nonpayable",
      "type": "function"
    },
    {
      "inputs": [],
      "payable": false,
      "stateMutability": "nonpayable",
      "type": "constructor"
    },
    {
      "anonymous": false,
      "inputs": [
        {
          "indexed": true,
          "name": "whom",
          "type": "address"
        },
        {
          "indexed": false,
          "name": "amount",
          "type": "uint256"
        }
      ],
      "name": "GiveAway",
      "type": "event"
    },
    {
      "anonymous": false,
      "inputs": [
        {
          "indexed": true,
          "name": "previousOwner",
          "type": "address"
        },
        {
          "indexed": true,
          "name": "newOwner",
          "type": "address"
        }
      ],
      "name": "OwnershipTransferred",
      "type": "event"
    },
    {
      "anonymous": false,
      "inputs": [
        {
          "indexed": true,
          "name": "owner",
          "type": "address"
        },
        {
          "indexed": true,
          "name": "spender",
          "type": "address"
        },
        {
          "indexed": false,
          "name": "value",
          "type": "uint256"
        }
      ],
      "name": "Approval",
      "type": "event"
    },
    {
      "anonymous": false,
      "inputs": [
        {
          "indexed": true,
          "name": "from",
          "type": "address"
        },
        {
          "indexed": true,
          "name": "to",
          "type": "address"
        },
        {
          "indexed": false,
          "name": "value",
          "type": "uint256"
        }
      ],
      "name": "Transfer",
      "type": "event"
    }
  ],
  "bytecode": "0x606060405260408051908101604052601981527f534f4e4d2073696465636861696e207465737420746f6b656e000000000000006020820152600490805161004b9291602001906100ef565b5060408051908101604052600481527f534e4d4c00000000000000000000000000000000000000000000000000000000602082015260059080516100939291602001906100ef565b50601260065534156100a457600080fd5b60038054600160a060020a033316600160a060020a0319918216811790911681179091556b016f44a83aab6c233c00000060018190556000918252602082905260409091205561018a565b828054600181600116156101000203166002900490600052602060002090601f016020900481019282601f1061013057805160ff191683800117855561015d565b8280016001018555821561015d579182015b8281111561015d578251825591602001919060010190610142565b5061016992915061016d565b5090565b61018791905b808211156101695760008155600101610173565b90565b6109eb806101996000396000f3006060604052600436106100c45763ffffffff7c010000000000000000000000000000000000000000000000000000000060003504166306fdde0381146100c9578063095ea7b31461015357806318160ddd1461018957806323b872dd146101ae578063313ce567146101d657806366188463146101e957806370a082311461020b5780638da5cb5b1461022a57806395d89b4114610259578063a9059cbb1461026c578063d73dd6231461028e578063dd62ed3e146102b0578063f2fde38b146102d5575b600080fd5b34156100d457600080fd5b6100dc6102f6565b60405160208082528190810183818151815260200191508051906020019080838360005b83811015610118578082015183820152602001610100565b50505050905090810190601f1680156101455780820380516001836020036101000a031916815260200191505b509250505060405180910390f35b341561015e57600080fd5b610175600160a060020a0360043516602435610394565b604051901515815260200160405180910390f35b341561019457600080fd5b61019c610400565b60405190815260200160405180910390f35b34156101b957600080fd5b610175600160a060020a0360043581169060243516604435610406565b34156101e157600080fd5b61019c610586565b34156101f457600080fd5b610175600160a060020a036004351660243561058c565b341561021657600080fd5b61019c600160a060020a0360043516610686565b341561023557600080fd5b61023d6106a1565b604051600160a060020a03909116815260200160405180910390f35b341561026457600080fd5b6100dc6106b0565b341561027757600080fd5b610175600160a060020a036004351660243561071b565b341561029957600080fd5b610175600160a060020a036004351660243561082d565b34156102bb57600080fd5b61019c600160a060020a03600435811690602435166108d1565b34156102e057600080fd5b6102f4600160a060020a03600435166108fc565b005b60048054600181600116156101000203166002900480601f01602080910402602001604051908101604052809291908181526020018280546001816001161561010002031660029004801561038c5780601f106103615761010080835404028352916020019161038c565b820191906000526020600020905b81548152906001019060200180831161036f57829003601f168201915b505050505081565b600160a060020a03338116600081815260026020908152604080832094871680845294909152808220859055909291907f8c5be1e5ebec7d5bd14f71427d1e84f3dd0314c0f7b2291e5b200ac8c7c3b9259085905190815260200160405180910390a350600192915050565b60015490565b6000600160a060020a038316151561041d57600080fd5b600160a060020a03841660009081526020819052604090205482111561044257600080fd5b600160a060020a038085166000908152600260209081526040808320339094168352929052205482111561047557600080fd5b600160a060020a03841660009081526020819052604090205461049e908363ffffffff61099716565b600160a060020a0380861660009081526020819052604080822093909355908516815220546104d3908363ffffffff6109a916565b600160a060020a0380851660009081526020818152604080832094909455878316825260028152838220339093168252919091522054610519908363ffffffff61099716565b600160a060020a03808616600081815260026020908152604080832033861684529091529081902093909355908516917fddf252ad1be2c89b69c2b068fc378daa952ba7f163c4a11628f55a4df523b3ef9085905190815260200160405180910390a35060019392505050565b60065481565b600160a060020a033381166000908152600260209081526040808320938616835292905290812054808311156105e957600160a060020a033381166000908152600260209081526040808320938816835292905290812055610620565b6105f9818463ffffffff61099716565b600160a060020a033381166000908152600260209081526040808320938916835292905220555b600160a060020a0333811660008181526002602090815260408083209489168084529490915290819020547f8c5be1e5ebec7d5bd14f71427d1e84f3dd0314c0f7b2291e5b200ac8c7c3b925915190815260200160405180910390a35060019392505050565b600160a060020a031660009081526020819052604090205490565b600354600160a060020a031681565b60058054600181600116156101000203166002900480601f01602080910402602001604051908101604052809291908181526020018280546001816001161561010002031660029004801561038c5780601f106103615761010080835404028352916020019161038c565b6000600160a060020a038316151561073257600080fd5b600160a060020a03331660009081526020819052604090205482111561075757600080fd5b600160a060020a033316600090815260208190526040902054610780908363ffffffff61099716565b600160a060020a0333811660009081526020819052604080822093909355908516815220546107b5908363ffffffff6109a916565b60008085600160a060020a0316600160a060020a031681526020019081526020016000208190555082600160a060020a031633600160a060020a03167fddf252ad1be2c89b69c2b068fc378daa952ba7f163c4a11628f55a4df523b3ef8460405190815260200160405180910390a350600192915050565b600160a060020a033381166000908152600260209081526040808320938616835292905290812054610865908363ffffffff6109a916565b600160a060020a0333811660008181526002602090815260408083209489168084529490915290819020849055919290917f8c5be1e5ebec7d5bd14f71427d1e84f3dd0314c0f7b2291e5b200ac8c7c3b92591905190815260200160405180910390a350600192915050565b600160a060020a03918216600090815260026020908152604080832093909416825291909152205490565b60035433600160a060020a0390811691161461091757600080fd5b600160a060020a038116151561092c57600080fd5b600354600160a060020a0380831691167f8be0079c531659141344cd1fd0a4f28419497f9722a3daafe3b4186f6b6457e060405160405180910390a36003805473ffffffffffffffffffffffffffffffffffffffff1916600160a060020a0392909216919091179055565b6000828211156109a357fe5b50900390565b6000828201838110156109b857fe5b93925050505600a165627a7a7230582060bbbb3d85bec54c2cb11a31c1f809c2c7e8f16219aaa68ed0023019485524190029",
  "source": "pragma solidity ^0.4.18;\n\n\nimport \"zeppelin-solidity/contracts/token/ERC20/StandardToken.sol\";\nimport \"zeppelin-solidity/contracts/ownership/Ownable.sol\";\n\n\ncontract SNMLToken is StandardToken, Ownable {\n\n    using SafeMath for uint256;\n\n    string public name = \"SONM sidechain test token\";\n\n    string public symbol = \"SNML\";\n\n    uint public decimals = 18;\n\n    event GiveAway(address indexed whom, uint amount);\n\n    function SNMLToken() public{\n        owner = msg.sender;\n        totalSupply_ = 444 * 1e6 * 1e18;\n        balances[msg.sender] = totalSupply_;\n    }\n\n}\n",
  "sourcePath": "/Users/anton/go/src/github.com/sonm-io/simple-gate/contracts/SNMLToken.sol",
  "compiler": {
    "name": "solc",
    "version": "0.4.21+commit.dfe3193c.Emscripten.clang"
  },
  "schemaVersion": "2.0.0",
  "updatedAt": "2018-04-22T12:08:24.463Z"
}